{
	"data": {
		"bytecode": {
			"linkReferences": {},
			"object": "6080604052348015600e575f5ffd5b505f600a908060018154018082558091505060019003905f5260205f20015f90919091909150555f6014908060018154018082558091505060019003905f5260205f20015f90919091909150555f6023908060018154018082558091505060019003905f5260205f20015f90919091909150556102548061008e5f395ff3fe608060405234801561000f575f5ffd5b506004361061003f575f3560e01c806388c14234146100435780639507d39a1461004d578063c90b86051461007d575b5f5ffd5b61004b6100ad565b005b6100676004803603810190610062919061019e565b610124565b60405161007491906101d8565b60405180910390f35b6100976004803603810190610092919061019e565b610148565b6040516100a491906101d8565b60405180910390f35b5f5f8054806020026020016040519081016040528092919081815260200182805480156100f757602002820191905f5260205f20905b8154815260200190600101908083116100e3575b505050505090506103e781600181518110610115576101146101f1565b5b60200260200101818152505050565b5f5f8281548110610138576101376101f1565b5b905f5260205f2001549050919050565b5f8181548110610156575f80fd5b905f5260205f20015f915090505481565b5f5ffd5b5f819050919050565b61017d8161016b565b8114610187575f5ffd5b50565b5f8135905061019881610174565b92915050565b5f602082840312156101b3576101b2610167565b5b5f6101c08482850161018a565b91505092915050565b6101d28161016b565b82525050565b5f6020820190506101eb5f8301846101c9565b92915050565b7f4e487b71000000000000000000000000000000000000000000000000000000005f52603260045260245ffdfea2646970667358221220511572fc86c2d27d276513b97d90de88e2d629a33b933b495ed723e13f38008964736f6c634300081e0033",
			"opcodes": "PUSH1 0x80 PUSH1 0x40 MSTORE CALLVALUE DUP1 ISZERO PUSH1 0xE JUMPI PUSH0 PUSH0 REVERT JUMPDEST POP PUSH0 PUSH1 0xA SWAP1 DUP1 PUSH1 0x1 DUP2 SLOAD ADD DUP1 DUP3 SSTORE DUP1 SWAP2 POP POP PUSH1 0x1 SWAP1 SUB SWAP1 PUSH0 MSTORE PUSH1 0x20 PUSH0 KECCAK256 ADD PUSH0 SWAP1 SWAP2 SWAP1 SWAP2 SWAP1 SWAP2 POP SSTORE PUSH0 PUSH1 0x14 SWAP1 DUP1 PUSH1 0x1 DUP2 SLOAD ADD DUP1 DUP3 SSTORE DUP1 SWAP2 POP POP PUSH1 0x1 SWAP1 SUB SWAP1 PUSH0 MSTORE PUSH1 0x20 PUSH0 KECCAK256 ADD PUSH0 SWAP1 SWAP2 SWAP1 SWAP2 SWAP1 SWAP2 POP SSTORE PUSH0 PUSH1 0x23 SWAP1 DUP1 PUSH1 0x1 DUP2 SLOAD ADD DUP1 DUP3 SSTORE DUP1 SWAP2 POP POP PUSH1 0x1 SWAP1 SUB SWAP1 PUSH0 MSTORE PUSH1 0x20 PUSH0 KECCAK256 ADD PUSH0 SWAP1 SWAP2 SWAP1 SWAP2 SWAP1 SWAP2 POP SSTORE PUSH2 0x254 DUP1 PUSH2 0x8E PUSH0 CODECOPY PUSH0 RETURN INVALID PUSH1 0x80 PUSH1 0x40 MSTORE CALLVALUE DUP1 ISZERO PUSH2 0xF JUMPI PUSH0 PUSH0 REVERT JUMPDEST POP PUSH1 0x4 CALLDATASIZE LT PUSH2 0x3F JUMPI PUSH0 CALLDATALOAD PUSH1 0xE0 SHR DUP1 PUSH4 0x88C14234 EQ PUSH2 0x43 JUMPI DUP1 PUSH4 0x9507D39A EQ PUSH2 0x4D JUMPI DUP1 PUSH4 0xC90B8605 EQ PUSH2 0x7D JUMPI JUMPDEST PUSH0 PUSH0 REVERT JUMPDEST PUSH2 0x4B PUSH2 0xAD JUMP JUMPDEST STOP JUMPDEST PUSH2 0x67 PUSH1 0x4 DUP1 CALLDATASIZE SUB DUP2 ADD SWAP1 PUSH2 0x62 SWAP2 SWAP1 PUSH2 0x19E JUMP JUMPDEST PUSH2 0x124 JUMP JUMPDEST PUSH1 0x40 MLOAD PUSH2 0x74 SWAP2 SWAP1 PUSH2 0x1D8 JUMP JUMPDEST PUSH1 0x40 MLOAD DUP1 SWAP2 SUB SWAP1 RETURN JUMPDEST PUSH2 0x97 PUSH1 0x4 DUP1 CALLDATASIZE SUB DUP2 ADD SWAP1 PUSH2 0x92 SWAP2 SWAP1 PUSH2 0x19E JUMP JUMPDEST PUSH2 0x148 JUMP JUMPDEST PUSH1 0x40 MLOAD PUSH2 0xA4 SWAP2 SWAP1 PUSH2 0x1D8 JUMP JUMPDEST PUSH1 0x40 MLOAD DUP1 SWAP2 SUB SWAP1 RETURN JUMPDEST PUSH0 PUSH0 DUP1 SLOAD DUP1 PUSH1 0x20 MUL PUSH1 0x20 ADD PUSH1 0x40 MLOAD SWAP1 DUP2 ADD PUSH1 0x40 MSTORE DUP1 SWAP3 SWAP2 SWAP1 DUP2 DUP2 MSTORE PUSH1 0x20 ADD DUP3 DUP1 SLOAD DUP1 ISZERO PUSH2 0xF7 JUMPI PUSH1 0x20 MUL DUP3 ADD SWAP2 SWAP1 PUSH0 MSTORE PUSH1 0x20 PUSH0 KECCAK256 SWAP1 JUMPDEST DUP2 SLOAD DUP2 MSTORE PUSH1 0x20 ADD SWAP1 PUSH1 0x1 ADD SWAP1 DUP1 DUP4 GT PUSH2 0xE3 JUMPI JUMPDEST POP POP POP POP POP SWAP1 POP PUSH2 0x3E7 DUP2 PUSH1 0x1 DUP2 MLOAD DUP2 LT PUSH2 0x115 JUMPI PUSH2 0x114 PUSH2 0x1F1 JUMP JUMPDEST JUMPDEST PUSH1 0x20 MUL PUSH1 0x20 ADD ADD DUP2 DUP2 MSTORE POP POP POP JUMP JUMPDEST PUSH0 PUSH0 DUP3 DUP2 SLOAD DUP2 LT PUSH2 0x138 JUMPI PUSH2 0x137 PUSH2 0x1F1 JUMP JUMPDEST JUMPDEST SWAP1 PUSH0 MSTORE PUSH1 0x20 PUSH0 KECCAK256 ADD SLOAD SWAP1 POP SWAP2 SWAP1 POP JUMP JUMPDEST PUSH0 DUP2 DUP2 SLOAD DUP2 LT PUSH2 0x156 JUMPI PUSH0 DUP1 REVERT JUMPDEST SWAP1 PUSH0 MSTORE PUSH1 0x20 PUSH0 KECCAK256 ADD PUSH0 SWAP2 POP SWAP1 POP SLOAD DUP2 JUMP JUMPDEST PUSH0 PUSH0 REVERT JUMPDEST PUSH0 DUP2 SWAP1 POP SWAP2 SWAP1 POP JUMP JUMPDEST PUSH2 0x17D DUP2 PUSH2 0x16B JUMP JUMPDEST DUP2 EQ PUSH2 0x187 JUMPI PUSH0 PUSH0 REVERT JUMPDEST POP JUMP JUMPDEST PUSH0 DUP2 CALLDATALOAD SWAP1 POP PUSH2 0x198 DUP2 PUSH2 0x174 JUMP JUMPDEST SWAP3 SWAP2 POP POP JUMP JUMPDEST PUSH0 PUSH1 0x20 DUP3 DUP5 SUB SLT ISZERO PUSH2 0x1B3 JUMPI PUSH2 0x1B2 PUSH2 0x167 JUMP JUMPDEST JUMPDEST PUSH0 PUSH2 0x1C0 DUP5 DUP3 DUP6 ADD PUSH2 0x18A JUMP JUMPDEST SWAP2 POP POP SWAP3 SWAP2 POP POP JUMP JUMPDEST PUSH2 0x1D2 DUP2 PUSH2 0x16B JUMP JUMPDEST DUP3 MSTORE POP POP JUMP JUMPDEST PUSH0 PUSH1 0x20 DUP3 ADD SWAP1 POP PUSH2 0x1EB PUSH0 DUP4 ADD DUP5 PUSH2 0x1C9 JUMP JUMPDEST SWAP3 SWAP2 POP POP JUMP JUMPDEST PUSH32 0x4E487B7100000000000000000000000000000000000000000000000000000000 PUSH0 MSTORE PUSH1 0x32 PUSH1 0x4 MSTORE PUSH1 0x24 PUSH0 REVERT INVALID LOG2 PUSH5 0x6970667358 0x22 SLT KECCAK256 MLOAD ISZERO PUSH19 0xFC86C2D27D276513B97D90DE88E2D629A33B93 EXTCODESIZE BLOBHASH MCOPY 0xD7 0x23 RJUMPI 0x3F38 STOP DUP10 PUSH5 0x736F6C6343 STOP ADDMOD 0x1E STOP CALLER "
		},
		"gasEstimates": {
			"creation": {
				"codeDepositCost": "119200",
				"executionCost": "139420",
				"totalCost": "258620"
			},
			"external": {
				"copyAndModify()": "infinite",
				"get(uint256)": "infinite",
				"importantNumbers(uint256)": "infinite"
			}
		},
		"methodIdentifiers": {
			"copyAndModify()": "88c14234",
			"get(uint256)": "9507d39a",
			"importantNumbers(uint256)": "c90b8605"
		}
	},
	"abi": [
		{
			"inputs": [],
			"stateMutability": "nonpayable",
			"type": "constructor"
		},
		{
			"inputs": [],
			"name": "copyAndModify",
			"outputs": [],
			"stateMutability": "nonpayable",
			"type": "function"
		},
		{
			"inputs": [
				{
					"internalType": "uint256",
					"name": "i",
					"type": "uint256"
				}
			],
			"name": "get",
			"outputs": [
				{
					"internalType": "uint256",
					"name": "",
					"type": "uint256"
				}
			],
			"stateMutability": "view",
			"type": "function"
		},
		{
			"inputs": [
				{
					"internalType": "uint256",
					"name": "",
					"type": "uint256"
				}
			],
			"name": "importantNumbers",
			"outputs": [
				{
					"internalType": "uint256",
					"name": "",
					"type": "uint256"
				}
			],
			"stateMutability": "view",
			"type": "function"
		}
	]
}